{
  "contractName": "UserVerzeichnis",
  "abi": [
    {
      "constant": true,
      "inputs": [
        {
          "name": "",
          "type": "address"
        },
        {
          "name": "",
          "type": "uint256"
        }
      ],
      "name": "userWahlenListe",
      "outputs": [
        {
          "name": "wLAddress",
          "type": "address"
        }
      ],
      "payable": false,
      "stateMutability": "view",
      "type": "function"
    },
    {
      "inputs": [],
      "payable": false,
      "stateMutability": "nonpayable",
      "type": "constructor"
    },
    {
      "constant": true,
      "inputs": [
        {
          "name": "_alias",
          "type": "string"
        }
      ],
      "name": "getAddressByAlias",
      "outputs": [
        {
          "name": "address_",
          "type": "address"
        }
      ],
      "payable": false,
      "stateMutability": "view",
      "type": "function"
    },
    {
      "constant": false,
      "inputs": [
        {
          "name": "_alias",
          "type": "string"
        },
        {
          "name": "_address",
          "type": "address"
        }
      ],
      "name": "addToAliasListeMapping",
      "outputs": [
        {
          "name": "success",
          "type": "bool"
        }
      ],
      "payable": false,
      "stateMutability": "nonpayable",
      "type": "function"
    },
    {
      "constant": false,
      "inputs": [
        {
          "name": "_user",
          "type": "address"
        },
        {
          "name": "_wahlAddresse",
          "type": "address"
        }
      ],
      "name": "addToUserWahlenListe",
      "outputs": [
        {
          "name": "success",
          "type": "bool"
        }
      ],
      "payable": false,
      "stateMutability": "nonpayable",
      "type": "function"
    }
  ],
  "bytecode": "0x608060405234801561001057600080fd5b506106af806100206000396000f3fe608060405260043610610062576000357c0100000000000000000000000000000000000000000000000000000000900463ffffffff16806347f9cb54146100675780637c194a3714610102578063c70f05be1461018b578063d2f0037f14610293575b600080fd5b34801561007357600080fd5b506100c06004803603604081101561008a57600080fd5b81019080803573ffffffffffffffffffffffffffffffffffffffff16906020019092919080359060200190929190505050610393565b604051808273ffffffffffffffffffffffffffffffffffffffff1673ffffffffffffffffffffffffffffffffffffffff16815260200191505060405180910390f35b34801561010e57600080fd5b506101716004803603604081101561012557600080fd5b81019080803573ffffffffffffffffffffffffffffffffffffffff169060200190929190803573ffffffffffffffffffffffffffffffffffffffff1690602001909291905050506103e9565b604051808215151515815260200191505060405180910390f35b34801561019757600080fd5b50610251600480360360208110156101ae57600080fd5b81019080803590602001906401000000008111156101cb57600080fd5b8201836020820111156101dd57600080fd5b803590602001918460018302840111640100000000831117156101ff57600080fd5b91908080601f016020809104026020016040519081016040528093929190818152602001838380828437600081840152601f19601f82011690508083019250505050505050919291929050505061050e565b604051808273ffffffffffffffffffffffffffffffffffffffff1673ffffffffffffffffffffffffffffffffffffffff16815260200191505060405180910390f35b34801561029f57600080fd5b50610379600480360360408110156102b657600080fd5b81019080803590602001906401000000008111156102d357600080fd5b8201836020820111156102e557600080fd5b8035906020019184600183028401116401000000008311171561030757600080fd5b91908080601f016020809104026020016040519081016040528093929190818152602001838380828437600081840152601f19601f820116905080830192505050505050509192919290803573ffffffffffffffffffffffffffffffffffffffff1690602001909291905050506105a3565b604051808215151515815260200191505060405180910390f35b6000602052816000526040600020818154811015156103ae57fe5b90600052602060002001600091509150508060000160009054906101000a900473ffffffffffffffffffffffffffffffffffffffff16905081565b60006103f3610659565b6020604051908101604052808473ffffffffffffffffffffffffffffffffffffffff16815250905082816000019073ffffffffffffffffffffffffffffffffffffffff16908173ffffffffffffffffffffffffffffffffffffffff16815250506000808573ffffffffffffffffffffffffffffffffffffffff1673ffffffffffffffffffffffffffffffffffffffff1681526020019081526020016000208190806001815401808255809150509060018203906000526020600020016000909192909190915060008201518160000160006101000a81548173ffffffffffffffffffffffffffffffffffffffff021916908373ffffffffffffffffffffffffffffffffffffffff160217905550505050600191505092915050565b60006001826040518082805190602001908083835b6020831015156105485780518252602082019150602081019050602083039250610523565b6001836020036101000a038019825116818451168082178552505050505050905001915050908152602001604051809103902060009054906101000a900473ffffffffffffffffffffffffffffffffffffffff169050919050565b6000816001846040518082805190602001908083835b6020831015156105de57805182526020820191506020810190506020830392506105b9565b6001836020036101000a038019825116818451168082178552505050505050905001915050908152602001604051809103902060006101000a81548173ffffffffffffffffffffffffffffffffffffffff021916908373ffffffffffffffffffffffffffffffffffffffff1602179055506001905092915050565b602060405190810160405280600073ffffffffffffffffffffffffffffffffffffffff168152509056fea165627a7a7230582027c541552383866fef73af7d849bf64f3aff530899e7b41a745faeb457aaa66f0029",
  "source": "pragma solidity ^0.5.0;\n\ncontract Wahl {\n\n    // Attribute\n    address public owner;\n    string public wahlName;\n    enum wahlStatus {angelegt, aktiv, beendet}\n    wahlStatus status;\n    uint stimmenAnzahlProWaehler;\n    mapping(address => bool) isUserValid;\n    bool public userListActivated;\n    mapping(address => uint) public anzahlAbgebbarerStimmen;\n    mapping(string => uint)         anzahlAbgegebenerStimmen;\n    mapping(address => bool) public stimmenAnWaehlerVerteilt;\n\n    mapping(string => bool) wahlOptionVorhanden;\n    string[] public wahlOptionenListe;\n\n    //mapping(address => bool) ownerListe;\n\n    constructor() public {\n        owner = msg.sender;\n        status = wahlStatus.angelegt;\n        stimmenAnzahlProWaehler = 1;\n    }\n\n    // Funktionen\n\n    /**\n     * Fügt einen neuen Wähler, der abstimmen darf, zur UserListe hinzu\n     * ToDo: Emit event\n     * */\n    function addUserToUserListe(address _user) public binWahlLeiter() returns(bool success) {\n        isUserValid[_user] = true;\n        return true;\n    }\n    /**\n     * Macht Wahl privat oder öffentlich\n     * */\n    function activateUserList() public binWahlLeiter() wahlIstAngelegt(status) returns (bool success){\n        userListActivated = true;\n        return true;\n    }\n\n    /**\n     * Wahlleiter kann bei angelegter Wahl Stimmenanzahl festlegen\n     * Todo: Emit event\n     */\n    function setStimmenAnzahlProWaehler(uint _stimmenAnzahlProWaehler) public binWahlLeiter() wahlIstAngelegt(status) returns (bool success){\n        stimmenAnzahlProWaehler = _stimmenAnzahlProWaehler;\n        return true;\n    }\n\n    /**\n     * Hinzufügen einer Wahloption in die WahlOptionenListe durch den Wahlleiter bei angelegter Wahl\n     * ToDo: emit event\n     * */\n    function addWahlOption(string memory _option) public binWahlLeiter() wahlIstAngelegt(status) returns(bool success) {\n        wahlOptionenListe.push(_option);\n        wahlOptionVorhanden[_option] = true;\n        return true;\n    }\n\n    /**\n     * setzt den Wahlnamen fest\n     * ToDo: emit event\n     * ToDo: nur admin darf namen festlegen\n     **/\n    function setWahlName(string memory _name) public binWahlLeiter() wahlIstAngelegt(status) returns(bool success) {\n        wahlName = _name;\n        emit changedName(msg.sender, wahlName);\n        return true;\n    }\n\n    /**\n     * startet die Wahl, sofern der Aufrufer Admin ist und der Status der Wahl auf angelegt steht\n     * ToDo: Emit event\n     * */\n    function starteWahl() public binWahlLeiter() wahlIstAngelegt(status) returns(bool success)  {\n        status = wahlStatus.aktiv;\n        emit changedStatus(msg.sender, status);\n        return true;\n    }\n\n    /**\n     * beendet die Wahl, sodern der Aufrufer Wahlleiter ist und die Wahl den status aktiv hat\n     * */\n    function beendeWahl() public binWahlLeiter() wahlIstAktiv(status) returns(bool success)  {\n        status = wahlStatus.beendet;\n        emit changedStatus(msg.sender, status);\n        return true;\n    }\n\n    /**\n     *  getter for Wahlstatus\n     *  Benötigt, da enums nicht public seien können.\n     */\n\n    function getWahlStatus() public view returns(wahlStatus status_){\n        return status;\n    }\n\n    /**\n     * Wahl-Methoden\n     *\n     * */\n    function stimmenInitialisieren() private waehlenErlaubt() wahlIstAktiv(status) returns (bool success){\n        require(stimmenAnWaehlerVerteilt[msg.sender]==false);\n        stimmenAnWaehlerVerteilt[msg.sender] = true;\n        anzahlAbgebbarerStimmen[msg.sender] = stimmenAnzahlProWaehler;\n        return true;\n    }\n\n    function stimmeAbgegeben(string memory _wahloption) public waehlenErlaubt() wahlIstAktiv(status) returns (bool success){\n        require(wahlOptionVorhanden[_wahloption]);\n        stimmenInitialisieren();\n        require(anzahlAbgebbarerStimmen[msg.sender]>=1);\n        anzahlAbgebbarerStimmen[msg.sender] -= 1;\n        anzahlAbgegebenerStimmen[_wahloption] += 1;\n        return true;\n    }\n\n    function mehrereStimmenAbgeben(string memory _wahloption, uint _anzahlStimmen) public waehlenErlaubt() wahlIstAktiv(status) returns (bool success){\n        require(wahlOptionVorhanden[_wahloption]);\n        stimmenInitialisieren();\n        require(anzahlAbgebbarerStimmen[msg.sender]>=_anzahlStimmen);\n        anzahlAbgebbarerStimmen[msg.sender] -= _anzahlStimmen;\n        anzahlAbgegebenerStimmen[_wahloption] += _anzahlStimmen;\n        return true;\n    }\n\n    /**\n     * Anzahl der abgegebenen Stimmen für eine Wahloption auslesen.\n     * */\n    function getWahlergebnis(string memory _wahloption) public view returns (uint stimmen){\n        require(wahlOptionVorhanden[_wahloption]);\n        return anzahlAbgegebenerStimmen[_wahloption];\n    }\n\n    // modifier\n    modifier binWahlLeiter() {\n        require(owner == msg.sender);\n        _;\n    }\n\n    modifier wahlIstAngelegt(wahlStatus _status) {\n        require(_status == wahlStatus.angelegt);\n        _;\n    }\n\n    modifier wahlIstAktiv(wahlStatus _status) {\n        require(_status == wahlStatus.aktiv);\n        _;\n    }\n\n    modifier waehlenErlaubt() {\n        require(isUserValid[msg.sender] || !userListActivated);\n        _;\n    }\n\n    // events\n    event changedStatus(address _by, wahlStatus _toStatus);\n    event changedName(address _by, string _toWahlName);\n\n}\n\ncontract UserVerzeichnis {\n\n\n    // Attribute\n    mapping(address => wahlListe[]) public userWahlenListe;\n    mapping(string => address) aliasListeMapping;\n\n    struct wahlListe {\n        address wLAddress;\n    }\n\n    // Konstruktor\n    constructor() public {}\n\n    /**\n     * Getter für aliasListeMappingelement (bzw. dessen Value) .\n     * Benötigt, da ein Mapping mit einem string nicht public sein kann.\n     * */\n     function getAddressByAlias(string memory _alias) public view returns(address address_){\n         return aliasListeMapping[_alias];\n     }\n\n\n    /**\n     * Füge Alias und Alias-Addresse zur AliasListe hinzu\n     * ToDo: emit event\n     * ToDo: modifier\n     * */\n    function addToAliasListeMapping(string memory _alias, address _address) public returns(bool success) {\n        aliasListeMapping[_alias] = _address;\n        return true;\n    }\n\n    /**\n     * Füge zu einem UserAdresse-Schlüssel eine Wahl-Addresse in das bestehende Array von \"hier darf\n     * ich wählen\" Liste Hinzu\n     * ToDo: emit event\n     * ToDo: modifier\n     * */\n    function addToUserWahlenListe(address _user, address _wahlAddresse) public returns(bool success) {\n        wahlListe memory wl = wahlListe(_wahlAddresse);\n        wl.wLAddress = _wahlAddresse;\n        userWahlenListe[_user].push(wl);\n        return true;\n    }\n}\n\ncontract WahlVerzeichnis {\n\n    // Attribute \n\n    mapping(uint256 => address) public inviteCodeAddressListe;\n\n    // Konstruktor\n    constructor() public {\n    }\n\n    // Funktion\n\n    /**\n     * Füge einen Code und eine Wahl-Addresse zur inviteCodeAddressListe Hinzu\n     * ToDo: emit event\n     * ToDo: modifier\n     **/\n    function addToInviteCodeAddressList(uint256 _inviteCode, address _wahlAddresse) public returns(bool success) {\n        inviteCodeAddressListe[_inviteCode] = _wahlAddresse;\n        return true;\n    }\n}",
  "sourcePath": "/home/lilith/Schreibtisch/pet-shop/contracts/Wahl.sol",
  "compiler": {
    "name": "solc",
    "version": "0.5.0+commit.1d4f565a.Emscripten.clang"
  },
  "schemaVersion": "3.0.6",
  "updatedAt": "2019-04-24T16:13:31.363Z",
  "devdoc": {
    "methods": {}
  },
  "userdoc": {
    "methods": {
      "addToAliasListeMapping(string,address)": {
        "notice": "Füge Alias und Alias-Addresse zur AliasListe hinzu ToDo: emit event ToDo: modifier"
      },
      "addToUserWahlenListe(address,address)": {
        "notice": "Füge zu einem UserAdresse-Schlüssel eine Wahl-Addresse in das bestehende Array von \"hier darf ich wählen\" Liste Hinzu ToDo: emit event ToDo: modifier"
      },
      "getAddressByAlias(string)": {
        "notice": "Getter für aliasListeMappingelement (bzw. dessen Value) . Benötigt, da ein Mapping mit einem string nicht public sein kann."
      }
    }
  }
}